{
  "contractName": "Refungible",
  "abi": [
    {
      "inputs": [
        {
          "internalType": "string",
          "name": "_name",
          "type": "string"
        },
        {
          "internalType": "string",
          "name": "_symbol",
          "type": "string"
        },
        {
          "internalType": "uint256",
          "name": "_tokenId",
          "type": "uint256"
        },
        {
          "internalType": "address",
          "name": "_nft",
          "type": "address"
        },
        {
          "internalType": "uint256",
          "name": "_sharePrice",
          "type": "uint256"
        },
        {
          "internalType": "uint256",
          "name": "_totalShares",
          "type": "uint256"
        }
      ],
      "stateMutability": "nonpayable",
      "type": "constructor"
    },
    {
      "anonymous": false,
      "inputs": [
        {
          "indexed": true,
          "internalType": "address",
          "name": "owner",
          "type": "address"
        },
        {
          "indexed": true,
          "internalType": "address",
          "name": "spender",
          "type": "address"
        },
        {
          "indexed": false,
          "internalType": "uint256",
          "name": "value",
          "type": "uint256"
        }
      ],
      "name": "Approval",
      "type": "event"
    },
    {
      "anonymous": false,
      "inputs": [
        {
          "indexed": true,
          "internalType": "address",
          "name": "from",
          "type": "address"
        },
        {
          "indexed": true,
          "internalType": "address",
          "name": "to",
          "type": "address"
        },
        {
          "indexed": false,
          "internalType": "uint256",
          "name": "value",
          "type": "uint256"
        }
      ],
      "name": "Transfer",
      "type": "event"
    },
    {
      "inputs": [],
      "name": "TST",
      "outputs": [
        {
          "internalType": "contract IERC20",
          "name": "",
          "type": "address"
        }
      ],
      "stateMutability": "view",
      "type": "function"
    },
    {
      "inputs": [
        {
          "internalType": "address",
          "name": "owner",
          "type": "address"
        },
        {
          "internalType": "address",
          "name": "spender",
          "type": "address"
        }
      ],
      "name": "allowance",
      "outputs": [
        {
          "internalType": "uint256",
          "name": "",
          "type": "uint256"
        }
      ],
      "stateMutability": "view",
      "type": "function"
    },
    {
      "inputs": [
        {
          "internalType": "address",
          "name": "spender",
          "type": "address"
        },
        {
          "internalType": "uint256",
          "name": "amount",
          "type": "uint256"
        }
      ],
      "name": "approve",
      "outputs": [
        {
          "internalType": "bool",
          "name": "",
          "type": "bool"
        }
      ],
      "stateMutability": "nonpayable",
      "type": "function"
    },
    {
      "inputs": [
        {
          "internalType": "address",
          "name": "account",
          "type": "address"
        }
      ],
      "name": "balanceOf",
      "outputs": [
        {
          "internalType": "uint256",
          "name": "",
          "type": "uint256"
        }
      ],
      "stateMutability": "view",
      "type": "function"
    },
    {
      "inputs": [],
      "name": "decimals",
      "outputs": [
        {
          "internalType": "uint8",
          "name": "",
          "type": "uint8"
        }
      ],
      "stateMutability": "view",
      "type": "function"
    },
    {
      "inputs": [
        {
          "internalType": "address",
          "name": "spender",
          "type": "address"
        },
        {
          "internalType": "uint256",
          "name": "subtractedValue",
          "type": "uint256"
        }
      ],
      "name": "decreaseAllowance",
      "outputs": [
        {
          "internalType": "bool",
          "name": "",
          "type": "bool"
        }
      ],
      "stateMutability": "nonpayable",
      "type": "function"
    },
    {
      "inputs": [],
      "name": "endTime",
      "outputs": [
        {
          "internalType": "uint256",
          "name": "",
          "type": "uint256"
        }
      ],
      "stateMutability": "view",
      "type": "function"
    },
    {
      "inputs": [
        {
          "internalType": "address",
          "name": "spender",
          "type": "address"
        },
        {
          "internalType": "uint256",
          "name": "addedValue",
          "type": "uint256"
        }
      ],
      "name": "increaseAllowance",
      "outputs": [
        {
          "internalType": "bool",
          "name": "",
          "type": "bool"
        }
      ],
      "stateMutability": "nonpayable",
      "type": "function"
    },
    {
      "inputs": [],
      "name": "name",
      "outputs": [
        {
          "internalType": "string",
          "name": "",
          "type": "string"
        }
      ],
      "stateMutability": "view",
      "type": "function"
    },
    {
      "inputs": [],
      "name": "nft",
      "outputs": [
        {
          "internalType": "contract IERC721",
          "name": "",
          "type": "address"
        }
      ],
      "stateMutability": "view",
      "type": "function"
    },
    {
      "inputs": [],
      "name": "owner",
      "outputs": [
        {
          "internalType": "address",
          "name": "",
          "type": "address"
        }
      ],
      "stateMutability": "view",
      "type": "function"
    },
    {
      "inputs": [],
      "name": "sharePrice",
      "outputs": [
        {
          "internalType": "uint256",
          "name": "",
          "type": "uint256"
        }
      ],
      "stateMutability": "view",
      "type": "function"
    },
    {
      "inputs": [],
      "name": "symbol",
      "outputs": [
        {
          "internalType": "string",
          "name": "",
          "type": "string"
        }
      ],
      "stateMutability": "view",
      "type": "function"
    },
    {
      "inputs": [],
      "name": "tokenId",
      "outputs": [
        {
          "internalType": "uint256",
          "name": "",
          "type": "uint256"
        }
      ],
      "stateMutability": "view",
      "type": "function"
    },
    {
      "inputs": [],
      "name": "totalShares",
      "outputs": [
        {
          "internalType": "uint256",
          "name": "",
          "type": "uint256"
        }
      ],
      "stateMutability": "view",
      "type": "function"
    },
    {
      "inputs": [],
      "name": "totalSupply",
      "outputs": [
        {
          "internalType": "uint256",
          "name": "",
          "type": "uint256"
        }
      ],
      "stateMutability": "view",
      "type": "function"
    },
    {
      "inputs": [
        {
          "internalType": "address",
          "name": "recipient",
          "type": "address"
        },
        {
          "internalType": "uint256",
          "name": "amount",
          "type": "uint256"
        }
      ],
      "name": "transfer",
      "outputs": [
        {
          "internalType": "bool",
          "name": "",
          "type": "bool"
        }
      ],
      "stateMutability": "nonpayable",
      "type": "function"
    },
    {
      "inputs": [
        {
          "internalType": "address",
          "name": "sender",
          "type": "address"
        },
        {
          "internalType": "address",
          "name": "recipient",
          "type": "address"
        },
        {
          "internalType": "uint256",
          "name": "amount",
          "type": "uint256"
        }
      ],
      "name": "transferFrom",
      "outputs": [
        {
          "internalType": "bool",
          "name": "",
          "type": "bool"
        }
      ],
      "stateMutability": "nonpayable",
      "type": "function"
    },
    {
      "inputs": [],
      "name": "startSale",
      "outputs": [],
      "stateMutability": "nonpayable",
      "type": "function"
    },
    {
      "inputs": [
        {
          "internalType": "uint256",
          "name": "amount",
          "type": "uint256"
        }
      ],
      "name": "buyShare",
      "outputs": [],
      "stateMutability": "nonpayable",
      "type": "function"
    },
    {
      "inputs": [],
      "name": "withdrawShares",
      "outputs": [],
      "stateMutability": "nonpayable",
      "type": "function"
    }
  ],
  "bytecode": "0x6101206040523480156200001257600080fd5b506040516200275f3803806200275f8339818101604052810190620000389190620003e8565b8585816003908051906020019062000052929190620000fb565b5080600490805190602001906200006b929190620000fb565b5050508360e081815250508273ffffffffffffffffffffffffffffffffffffffff166101008173ffffffffffffffffffffffffffffffffffffffff16815250503373ffffffffffffffffffffffffffffffffffffffff1660c08173ffffffffffffffffffffffffffffffffffffffff168152505081608081815250508060a0818152505050505050505062000527565b8280546200010990620004f1565b90600052602060002090601f0160209004810192826200012d576000855562000179565b82601f106200014857805160ff191683800117855562000179565b8280016001018555821562000179579182015b82811115620001785782518255916020019190600101906200015b565b5b5090506200018891906200018c565b5090565b5b80821115620001a75760008160009055506001016200018d565b5090565b6000604051905090565b600080fd5b600080fd5b600080fd5b600080fd5b6000601f19601f8301169050919050565b7f4e487b7100000000000000000000000000000000000000000000000000000000600052604160045260246000fd5b6200021482620001c9565b810181811067ffffffffffffffff82111715620002365762000235620001da565b5b80604052505050565b60006200024b620001ab565b905062000259828262000209565b919050565b600067ffffffffffffffff8211156200027c576200027b620001da565b5b6200028782620001c9565b9050602081019050919050565b60005b83811015620002b457808201518184015260208101905062000297565b83811115620002c4576000848401525b50505050565b6000620002e1620002db846200025e565b6200023f565b9050828152602081018484840111156200030057620002ff620001c4565b5b6200030d84828562000294565b509392505050565b600082601f8301126200032d576200032c620001bf565b5b81516200033f848260208601620002ca565b91505092915050565b6000819050919050565b6200035d8162000348565b81146200036957600080fd5b50565b6000815190506200037d8162000352565b92915050565b600073ffffffffffffffffffffffffffffffffffffffff82169050919050565b6000620003b08262000383565b9050919050565b620003c281620003a3565b8114620003ce57600080fd5b50565b600081519050620003e281620003b7565b92915050565b60008060008060008060c08789031215620004085762000407620001b5565b5b600087015167ffffffffffffffff811115620004295762000428620001ba565b5b6200043789828a0162000315565b965050602087015167ffffffffffffffff8111156200045b576200045a620001ba565b5b6200046989828a0162000315565b95505060406200047c89828a016200036c565b94505060606200048f89828a01620003d1565b9350506080620004a289828a016200036c565b92505060a0620004b589828a016200036c565b9150509295509295509295565b7f4e487b7100000000000000000000000000000000000000000000000000000000600052602260045260246000fd5b600060028204905060018216806200050a57607f821691505b60208210811415620005215762000520620004c2565b5b50919050565b60805160a05160c05160e051610100516121b4620005ab600039600081816106bd0152610db60152600081816104b80152610df401526000818161074d015281816108ea015281816109b1015281816109dd0152610d28015260008181610699015281816109780152610be00152600081816107290152610c5801526121b46000f3fe608060405234801561001057600080fd5b50600436106101375760003560e01c806370a08231116100b8578063a457c2d71161007c578063a457c2d714610332578063a9059cbb14610362578063a9ed6e9a14610392578063b66a0e5d146103ae578063dd62ed3e146103b8578063e3daba71146103e857610137565b806370a082311461029e57806387269729146102ce5780638d086da4146102ec5780638da5cb5b146102f657806395d89b411461031457610137565b8063313ce567116100ff578063313ce567146101f65780633197cbb61461021457806339509351146102325780633a98ef391461026257806347ccca021461028057610137565b806306fdde031461013c578063095ea7b31461015a57806317d70f7c1461018a57806318160ddd146101a857806323b872dd146101c6575b600080fd5b610144610406565b6040516101519190611570565b60405180910390f35b610174600480360381019061016f919061162b565b610498565b6040516101819190611686565b60405180910390f35b6101926104b6565b60405161019f91906116b0565b60405180910390f35b6101b06104da565b6040516101bd91906116b0565b60405180910390f35b6101e060048036038101906101db91906116cb565b6104e4565b6040516101ed9190611686565b60405180910390f35b6101fe6105dc565b60405161020b919061173a565b60405180910390f35b61021c6105e5565b60405161022991906116b0565b60405180910390f35b61024c6004803603810190610247919061162b565b6105eb565b6040516102599190611686565b60405180910390f35b61026a610697565b60405161027791906116b0565b60405180910390f35b6102886106bb565b60405161029591906117b4565b60405180910390f35b6102b860048036038101906102b391906117cf565b6106df565b6040516102c591906116b0565b60405180910390f35b6102d6610727565b6040516102e391906116b0565b60405180910390f35b6102f461074b565b005b6102fe6109db565b60405161030b919061180b565b60405180910390f35b61031c6109ff565b6040516103299190611570565b60405180910390f35b61034c6004803603810190610347919061162b565b610a91565b6040516103599190611686565b60405180910390f35b61037c6004803603810190610377919061162b565b610b7c565b6040516103899190611686565b60405180910390f35b6103ac60048036038101906103a79190611826565b610b9a565b005b6103b6610d26565b005b6103d260048036038101906103cd9190611853565b610e7a565b6040516103df91906116b0565b60405180910390f35b6103f0610f01565b6040516103fd91906118b4565b60405180910390f35b606060038054610415906118fe565b80601f0160208091040260200160405190810160405280929190818152602001828054610441906118fe565b801561048e5780601f106104635761010080835404028352916020019161048e565b820191906000526020600020905b81548152906001019060200180831161047157829003601f168201915b5050505050905090565b60006104ac6104a5610f19565b8484610f21565b6001905092915050565b7f000000000000000000000000000000000000000000000000000000000000000081565b6000600254905090565b60006104f18484846110ec565b6000600160008673ffffffffffffffffffffffffffffffffffffffff1673ffffffffffffffffffffffffffffffffffffffff168152602001908152602001600020600061053c610f19565b73ffffffffffffffffffffffffffffffffffffffff1673ffffffffffffffffffffffffffffffffffffffff168152602001908152602001600020549050828110156105bc576040517f08c379a00000000000000000000000000000000000000000000000000000000081526004016105b3906119a2565b60405180910390fd5b6105d0856105c8610f19565b858403610f21565b60019150509392505050565b60006012905090565b60055481565b600061068d6105f8610f19565b848460016000610606610f19565b73ffffffffffffffffffffffffffffffffffffffff1673ffffffffffffffffffffffffffffffffffffffff16815260200190815260200160002060008873ffffffffffffffffffffffffffffffffffffffff1673ffffffffffffffffffffffffffffffffffffffff1681526020019081526020016000205461068891906119f1565b610f21565b6001905092915050565b7f000000000000000000000000000000000000000000000000000000000000000081565b7f000000000000000000000000000000000000000000000000000000000000000081565b60008060008373ffffffffffffffffffffffffffffffffffffffff1673ffffffffffffffffffffffffffffffffffffffff168152602001908152602001600020549050919050565b7f000000000000000000000000000000000000000000000000000000000000000081565b7f000000000000000000000000000000000000000000000000000000000000000073ffffffffffffffffffffffffffffffffffffffff163373ffffffffffffffffffffffffffffffffffffffff16146107d9576040517f08c379a00000000000000000000000000000000000000000000000000000000081526004016107d090611ab9565b60405180910390fd5b600554421161081d576040517f08c379a000000000000000000000000000000000000000000000000000000000815260040161081490611b25565b60405180910390fd5b600073722dd3f80bac40c951b51bdd28dd19d43576218073ffffffffffffffffffffffffffffffffffffffff166370a08231306040518263ffffffff1660e01b815260040161086c919061180b565b602060405180830381865afa158015610889573d6000803e3d6000fd5b505050506040513d601f19601f820116820180604052508101906108ad9190611b5a565b9050600081111561096c5773722dd3f80bac40c951b51bdd28dd19d43576218073ffffffffffffffffffffffffffffffffffffffff1663a9059cbb7f0000000000000000000000000000000000000000000000000000000000000000836040518363ffffffff1660e01b8152600401610927929190611b87565b6020604051808303816000875af1158015610946573d6000803e3d6000fd5b505050506040513d601f19601f8201168201806040525081019061096a9190611bdc565b505b60006109766104da565b7f00000000000000000000000000000000000000000000000000000000000000006109a19190611c09565b905060008111156109d7576109d67f00000000000000000000000000000000000000000000000000000000000000008261136d565b5b5050565b7f000000000000000000000000000000000000000000000000000000000000000081565b606060048054610a0e906118fe565b80601f0160208091040260200160405190810160405280929190818152602001828054610a3a906118fe565b8015610a875780601f10610a5c57610100808354040283529160200191610a87565b820191906000526020600020905b815481529060010190602001808311610a6a57829003601f168201915b5050505050905090565b60008060016000610aa0610f19565b73ffffffffffffffffffffffffffffffffffffffff1673ffffffffffffffffffffffffffffffffffffffff16815260200190815260200160002060008573ffffffffffffffffffffffffffffffffffffffff1673ffffffffffffffffffffffffffffffffffffffff16815260200190815260200160002054905082811015610b5d576040517f08c379a0000000000000000000000000000000000000000000000000000000008152600401610b5490611caf565b60405180910390fd5b610b71610b68610f19565b85858403610f21565b600191505092915050565b6000610b90610b89610f19565b84846110ec565b6001905092915050565b4260055411610bde576040517f08c379a0000000000000000000000000000000000000000000000000000000008152600401610bd590611d1b565b60405180910390fd5b7f000000000000000000000000000000000000000000000000000000000000000081610c086104da565b610c1291906119f1565b1115610c53576040517f08c379a0000000000000000000000000000000000000000000000000000000008152600401610c4a90611d87565b60405180910390fd5b6000817f0000000000000000000000000000000000000000000000000000000000000000610c819190611da7565b905073722dd3f80bac40c951b51bdd28dd19d43576218073ffffffffffffffffffffffffffffffffffffffff166323b872dd3330846040518463ffffffff1660e01b8152600401610cd493929190611e01565b6020604051808303816000875af1158015610cf3573d6000803e3d6000fd5b505050506040513d601f19601f82011682018060405250810190610d179190611bdc565b50610d22338361136d565b5050565b7f000000000000000000000000000000000000000000000000000000000000000073ffffffffffffffffffffffffffffffffffffffff163373ffffffffffffffffffffffffffffffffffffffff1614610db4576040517f08c379a0000000000000000000000000000000000000000000000000000000008152600401610dab90611ab9565b60405180910390fd5b7f000000000000000000000000000000000000000000000000000000000000000073ffffffffffffffffffffffffffffffffffffffff166323b872dd33307f00000000000000000000000000000000000000000000000000000000000000006040518463ffffffff1660e01b8152600401610e3193929190611e01565b600060405180830381600087803b158015610e4b57600080fd5b505af1158015610e5f573d6000803e3d6000fd5b5050505062093a8042610e7291906119f1565b600581905550565b6000600160008473ffffffffffffffffffffffffffffffffffffffff1673ffffffffffffffffffffffffffffffffffffffff16815260200190815260200160002060008373ffffffffffffffffffffffffffffffffffffffff1673ffffffffffffffffffffffffffffffffffffffff16815260200190815260200160002054905092915050565b73722dd3f80bac40c951b51bdd28dd19d43576218081565b600033905090565b600073ffffffffffffffffffffffffffffffffffffffff168373ffffffffffffffffffffffffffffffffffffffff161415610f91576040517f08c379a0000000000000000000000000000000000000000000000000000000008152600401610f8890611eaa565b60405180910390fd5b600073ffffffffffffffffffffffffffffffffffffffff168273ffffffffffffffffffffffffffffffffffffffff161415611001576040517f08c379a0000000000000000000000000000000000000000000000000000000008152600401610ff890611f3c565b60405180910390fd5b80600160008573ffffffffffffffffffffffffffffffffffffffff1673ffffffffffffffffffffffffffffffffffffffff16815260200190815260200160002060008473ffffffffffffffffffffffffffffffffffffffff1673ffffffffffffffffffffffffffffffffffffffff168152602001908152602001600020819055508173ffffffffffffffffffffffffffffffffffffffff168373ffffffffffffffffffffffffffffffffffffffff167f8c5be1e5ebec7d5bd14f71427d1e84f3dd0314c0f7b2291e5b200ac8c7c3b925836040516110df91906116b0565b60405180910390a3505050565b600073ffffffffffffffffffffffffffffffffffffffff168373ffffffffffffffffffffffffffffffffffffffff16141561115c576040517f08c379a000000000000000000000000000000000000000000000000000000000815260040161115390611fce565b60405180910390fd5b600073ffffffffffffffffffffffffffffffffffffffff168273ffffffffffffffffffffffffffffffffffffffff1614156111cc576040517f08c379a00000000000000000000000000000000000000000000000000000000081526004016111c390612060565b60405180910390fd5b6111d78383836114cd565b60008060008573ffffffffffffffffffffffffffffffffffffffff1673ffffffffffffffffffffffffffffffffffffffff1681526020019081526020016000205490508181101561125d576040517f08c379a0000000000000000000000000000000000000000000000000000000008152600401611254906120f2565b60405180910390fd5b8181036000808673ffffffffffffffffffffffffffffffffffffffff1673ffffffffffffffffffffffffffffffffffffffff16815260200190815260200160002081905550816000808573ffffffffffffffffffffffffffffffffffffffff1673ffffffffffffffffffffffffffffffffffffffff16815260200190815260200160002060008282546112f091906119f1565b925050819055508273ffffffffffffffffffffffffffffffffffffffff168473ffffffffffffffffffffffffffffffffffffffff167fddf252ad1be2c89b69c2b068fc378daa952ba7f163c4a11628f55a4df523b3ef8460405161135491906116b0565b60405180910390a36113678484846114d2565b50505050565b600073ffffffffffffffffffffffffffffffffffffffff168273ffffffffffffffffffffffffffffffffffffffff1614156113dd576040517f08c379a00000000000000000000000000000000000000000000000000000000081526004016113d49061215e565b60405180910390fd5b6113e9600083836114cd565b80600260008282546113fb91906119f1565b92505081905550806000808473ffffffffffffffffffffffffffffffffffffffff1673ffffffffffffffffffffffffffffffffffffffff168152602001908152602001600020600082825461145091906119f1565b925050819055508173ffffffffffffffffffffffffffffffffffffffff16600073ffffffffffffffffffffffffffffffffffffffff167fddf252ad1be2c89b69c2b068fc378daa952ba7f163c4a11628f55a4df523b3ef836040516114b591906116b0565b60405180910390a36114c9600083836114d2565b5050565b505050565b505050565b600081519050919050565b600082825260208201905092915050565b60005b838110156115115780820151818401526020810190506114f6565b83811115611520576000848401525b50505050565b6000601f19601f8301169050919050565b6000611542826114d7565b61154c81856114e2565b935061155c8185602086016114f3565b61156581611526565b840191505092915050565b6000602082019050818103600083015261158a8184611537565b905092915050565b600080fd5b600073ffffffffffffffffffffffffffffffffffffffff82169050919050565b60006115c282611597565b9050919050565b6115d2816115b7565b81146115dd57600080fd5b50565b6000813590506115ef816115c9565b92915050565b6000819050919050565b611608816115f5565b811461161357600080fd5b50565b600081359050611625816115ff565b92915050565b6000806040838503121561164257611641611592565b5b6000611650858286016115e0565b925050602061166185828601611616565b9150509250929050565b60008115159050919050565b6116808161166b565b82525050565b600060208201905061169b6000830184611677565b92915050565b6116aa816115f5565b82525050565b60006020820190506116c560008301846116a1565b92915050565b6000806000606084860312156116e4576116e3611592565b5b60006116f2868287016115e0565b9350506020611703868287016115e0565b925050604061171486828701611616565b9150509250925092565b600060ff82169050919050565b6117348161171e565b82525050565b600060208201905061174f600083018461172b565b92915050565b6000819050919050565b600061177a61177561177084611597565b611755565b611597565b9050919050565b600061178c8261175f565b9050919050565b600061179e82611781565b9050919050565b6117ae81611793565b82525050565b60006020820190506117c960008301846117a5565b92915050565b6000602082840312156117e5576117e4611592565b5b60006117f3848285016115e0565b91505092915050565b611805816115b7565b82525050565b600060208201905061182060008301846117fc565b92915050565b60006020828403121561183c5761183b611592565b5b600061184a84828501611616565b91505092915050565b6000806040838503121561186a57611869611592565b5b6000611878858286016115e0565b9250506020611889858286016115e0565b9150509250929050565b600061189e82611781565b9050919050565b6118ae81611893565b82525050565b60006020820190506118c960008301846118a5565b92915050565b7f4e487b7100000000000000000000000000000000000000000000000000000000600052602260045260246000fd5b6000600282049050600182168061191657607f821691505b6020821081141561192a576119296118cf565b5b50919050565b7f45524332303a207472616e7366657220616d6f756e742065786365656473206160008201527f6c6c6f77616e6365000000000000000000000000000000000000000000000000602082015250565b600061198c6028836114e2565b915061199782611930565b604082019050919050565b600060208201905081810360008301526119bb8161197f565b9050919050565b7f4e487b7100000000000000000000000000000000000000000000000000000000600052601160045260246000fd5b60006119fc826115f5565b9150611a07836115f5565b9250827fffffffffffffffffffffffffffffffffffffffffffffffffffffffffffffffff03821115611a3c57611a3b6119c2565b5b828201905092915050565b7f4f6e6c7920746865206f776e65722063616e2063616c6c20746869732066756e60008201527f6374696f6e000000000000000000000000000000000000000000000000000000602082015250565b6000611aa36025836114e2565b9150611aae82611a47565b604082019050919050565b60006020820190508181036000830152611ad281611a96565b9050919050565b7f53616c65207374696c6c20616374697665000000000000000000000000000000600082015250565b6000611b0f6011836114e2565b9150611b1a82611ad9565b602082019050919050565b60006020820190508181036000830152611b3e81611b02565b9050919050565b600081519050611b54816115ff565b92915050565b600060208284031215611b7057611b6f611592565b5b6000611b7e84828501611b45565b91505092915050565b6000604082019050611b9c60008301856117fc565b611ba960208301846116a1565b9392505050565b611bb98161166b565b8114611bc457600080fd5b50565b600081519050611bd681611bb0565b92915050565b600060208284031215611bf257611bf1611592565b5b6000611c0084828501611bc7565b91505092915050565b6000611c14826115f5565b9150611c1f836115f5565b925082821015611c3257611c316119c2565b5b828203905092915050565b7f45524332303a2064656372656173656420616c6c6f77616e63652062656c6f7760008201527f207a65726f000000000000000000000000000000000000000000000000000000602082015250565b6000611c996025836114e2565b9150611ca482611c3d565b604082019050919050565b60006020820190508181036000830152611cc881611c8c565b9050919050565b7f53616c65206e6f74206163746976650000000000000000000000000000000000600082015250565b6000611d05600f836114e2565b9150611d1082611ccf565b602082019050919050565b60006020820190508181036000830152611d3481611cf8565b9050919050565b7f4e6f7420656e6f75676820736861726573206c65667400000000000000000000600082015250565b6000611d716016836114e2565b9150611d7c82611d3b565b602082019050919050565b60006020820190508181036000830152611da081611d64565b9050919050565b6000611db2826115f5565b9150611dbd836115f5565b9250817fffffffffffffffffffffffffffffffffffffffffffffffffffffffffffffffff0483118215151615611df657611df56119c2565b5b828202905092915050565b6000606082019050611e1660008301866117fc565b611e2360208301856117fc565b611e3060408301846116a1565b949350505050565b7f45524332303a20617070726f76652066726f6d20746865207a65726f2061646460008201527f7265737300000000000000000000000000000000000000000000000000000000602082015250565b6000611e946024836114e2565b9150611e9f82611e38565b604082019050919050565b60006020820190508181036000830152611ec381611e87565b9050919050565b7f45524332303a20617070726f766520746f20746865207a65726f20616464726560008201527f7373000000000000000000000000000000000000000000000000000000000000602082015250565b6000611f266022836114e2565b9150611f3182611eca565b604082019050919050565b60006020820190508181036000830152611f5581611f19565b9050919050565b7f45524332303a207472616e736665722066726f6d20746865207a65726f20616460008201527f6472657373000000000000000000000000000000000000000000000000000000602082015250565b6000611fb86025836114e2565b9150611fc382611f5c565b604082019050919050565b60006020820190508181036000830152611fe781611fab565b9050919050565b7f45524332303a207472616e7366657220746f20746865207a65726f206164647260008201527f6573730000000000000000000000000000000000000000000000000000000000602082015250565b600061204a6023836114e2565b915061205582611fee565b604082019050919050565b600060208201905081810360008301526120798161203d565b9050919050565b7f45524332303a207472616e7366657220616d6f756e742065786365656473206260008201527f616c616e63650000000000000000000000000000000000000000000000000000602082015250565b60006120dc6026836114e2565b91506120e782612080565b604082019050919050565b6000602082019050818103600083015261210b816120cf565b9050919050565b7f45524332303a206d696e7420746f20746865207a65726f206164647265737300600082015250565b6000612148601f836114e2565b915061215382612112565b602082019050919050565b600060208201905081810360008301526121778161213b565b905091905056fea264697066735822122045667184d44b208f794a816073d563d1f04ccd457a706da589b71bfe97f8bf6764736f6c634300080a0033",
  "immutableReferences": {
    "840": [
      {
        "length": 32,
        "start": 1833
      },
      {
        "length": 32,
        "start": 3160
      }
    ],
    "842": [
      {
        "length": 32,
        "start": 1689
      },
      {
        "length": 32,
        "start": 2424
      },
      {
        "length": 32,
        "start": 3040
      }
    ],
    "846": [
      {
        "length": 32,
        "start": 1869
      },
      {
        "length": 32,
        "start": 2282
      },
      {
        "length": 32,
        "start": 2481
      },
      {
        "length": 32,
        "start": 2525
      },
      {
        "length": 32,
        "start": 3368
      }
    ],
    "848": [
      {
        "length": 32,
        "start": 1208
      },
      {
        "length": 32,
        "start": 3572
      }
    ],
    "851": [
      {
        "length": 32,
        "start": 1725
      },
      {
        "length": 32,
        "start": 3510
      }
    ]
  },
  "source": "// SPDX-License-Identifier: MIT\r\npragma solidity ^0.8.0;\r\nimport \"@openzeppelin/contracts/token/ERC721/IERC721.sol\";\r\nimport \"@openzeppelin/contracts/token/ERC20/IERC20.sol\";\r\nimport \"@openzeppelin/contracts/token/ERC20/ERC20.sol\";\r\n\r\ncontract Refungible is ERC20{\r\n    uint256 public immutable sharePrice;\r\n    uint256 public immutable totalShares;\r\n    uint256 public endTime;\r\n    address public immutable owner; \r\n    uint256 public immutable tokenId;\r\n    IERC721 public immutable nft;\r\n    IERC20 public constant TST = IERC20(0x722dd3F80BAC40c951b51BdD28Dd19d435762180); //Ropsten Test Token\r\n\r\n    modifier onlyOwner{\r\n        require(msg.sender==owner, \"Only the owner can call this function\");\r\n        _;\r\n    }\r\n\r\n    constructor(string memory _name, string memory _symbol, uint256 _tokenId, address _nft, uint256 _sharePrice, uint256 _totalShares) ERC20(_name, _symbol){\r\n        tokenId = _tokenId;\r\n        nft = IERC721(_nft);\r\n        owner = msg.sender;\r\n        sharePrice = _sharePrice;\r\n        totalShares = _totalShares;\r\n    }\r\n    function startSale() external onlyOwner{\r\n        nft.transferFrom(msg.sender, address(this), tokenId);\r\n        endTime = block.timestamp + 7 days;\r\n    }\r\n    function buyShare(uint256 amount) external{\r\n        require(endTime>block.timestamp, \"Sale not active\");\r\n        require(totalSupply() + amount <= totalShares, \"Not enough shares left\");\r\n        uint256 transferAmount = sharePrice * amount; \r\n        TST.transferFrom(msg.sender, address(this), transferAmount);\r\n        _mint(msg.sender, amount);\r\n    }\r\n    function withdrawShares() external onlyOwner{\r\n        require(block.timestamp>endTime, \"Sale still active\" );\r\n        uint256 currentBalance = TST.balanceOf(address(this));\r\n        if(currentBalance>0) TST.transfer(owner, currentBalance);\r\n        uint256 unsoldShares = totalShares - totalSupply();\r\n        if(unsoldShares>0) _mint(owner, unsoldShares);\r\n    }\r\n}",
  "sourcePath": "C:\\Users\\adnan\\Documents\\rft-kerb\\contracts\\Refungible.sol",
  "compiler": {
    "name": "solc",
    "version": "0.8.10+commit.fc410830.Emscripten.clang"
  },
  "schemaVersion": "3.4.3",
  "updatedAt": "2021-12-09T12:25:16.949Z",
  "devdoc": {
    "kind": "dev",
    "methods": {
      "allowance(address,address)": {
        "details": "See {IERC20-allowance}."
      },
      "approve(address,uint256)": {
        "details": "See {IERC20-approve}. Requirements: - `spender` cannot be the zero address."
      },
      "balanceOf(address)": {
        "details": "See {IERC20-balanceOf}."
      },
      "decimals()": {
        "details": "Returns the number of decimals used to get its user representation. For example, if `decimals` equals `2`, a balance of `505` tokens should be displayed to a user as `5.05` (`505 / 10 ** 2`). Tokens usually opt for a value of 18, imitating the relationship between Ether and Wei. This is the value {ERC20} uses, unless this function is overridden; NOTE: This information is only used for _display_ purposes: it in no way affects any of the arithmetic of the contract, including {IERC20-balanceOf} and {IERC20-transfer}."
      },
      "decreaseAllowance(address,uint256)": {
        "details": "Atomically decreases the allowance granted to `spender` by the caller. This is an alternative to {approve} that can be used as a mitigation for problems described in {IERC20-approve}. Emits an {Approval} event indicating the updated allowance. Requirements: - `spender` cannot be the zero address. - `spender` must have allowance for the caller of at least `subtractedValue`."
      },
      "increaseAllowance(address,uint256)": {
        "details": "Atomically increases the allowance granted to `spender` by the caller. This is an alternative to {approve} that can be used as a mitigation for problems described in {IERC20-approve}. Emits an {Approval} event indicating the updated allowance. Requirements: - `spender` cannot be the zero address."
      },
      "name()": {
        "details": "Returns the name of the token."
      },
      "symbol()": {
        "details": "Returns the symbol of the token, usually a shorter version of the name."
      },
      "totalSupply()": {
        "details": "See {IERC20-totalSupply}."
      },
      "transfer(address,uint256)": {
        "details": "See {IERC20-transfer}. Requirements: - `recipient` cannot be the zero address. - the caller must have a balance of at least `amount`."
      },
      "transferFrom(address,address,uint256)": {
        "details": "See {IERC20-transferFrom}. Emits an {Approval} event indicating the updated allowance. This is not required by the EIP. See the note at the beginning of {ERC20}. Requirements: - `sender` and `recipient` cannot be the zero address. - `sender` must have a balance of at least `amount`. - the caller must have allowance for ``sender``'s tokens of at least `amount`."
      }
    },
    "version": 1
  },
  "userdoc": {
    "kind": "user",
    "methods": {},
    "version": 1
  }
}